{
  "_format": "hh3-artifact-1",
  "contractName": "MockLendingPool",
  "sourceName": "contracts/mocks/MockLendingPool.sol",
  "abi": [
    {
      "inputs": [
        {
          "internalType": "address",
          "name": "_oracle",
          "type": "address"
        }
      ],
      "stateMutability": "nonpayable",
      "type": "constructor"
    },
    {
      "inputs": [],
      "name": "HealthFactorTooLow",
      "type": "error"
    },
    {
      "inputs": [],
      "name": "InsufficientCollateral",
      "type": "error"
    },
    {
      "inputs": [],
      "name": "InsufficientLiquidity",
      "type": "error"
    },
    {
      "inputs": [],
      "name": "InvalidAmount",
      "type": "error"
    },
    {
      "inputs": [],
      "name": "TransferFailed",
      "type": "error"
    },
    {
      "anonymous": false,
      "inputs": [
        {
          "indexed": true,
          "internalType": "address",
          "name": "user",
          "type": "address"
        },
        {
          "indexed": true,
          "internalType": "address",
          "name": "token",
          "type": "address"
        },
        {
          "indexed": false,
          "internalType": "uint256",
          "name": "amount",
          "type": "uint256"
        }
      ],
      "name": "Borrow",
      "type": "event"
    },
    {
      "anonymous": false,
      "inputs": [
        {
          "indexed": true,
          "internalType": "address",
          "name": "token",
          "type": "address"
        },
        {
          "indexed": false,
          "internalType": "uint256",
          "name": "amount",
          "type": "uint256"
        }
      ],
      "name": "LiquidityAdded",
      "type": "event"
    },
    {
      "anonymous": false,
      "inputs": [
        {
          "indexed": true,
          "internalType": "address",
          "name": "user",
          "type": "address"
        },
        {
          "indexed": true,
          "internalType": "address",
          "name": "token",
          "type": "address"
        },
        {
          "indexed": false,
          "internalType": "uint256",
          "name": "amount",
          "type": "uint256"
        }
      ],
      "name": "Repay",
      "type": "event"
    },
    {
      "anonymous": false,
      "inputs": [
        {
          "indexed": true,
          "internalType": "address",
          "name": "user",
          "type": "address"
        },
        {
          "indexed": true,
          "internalType": "address",
          "name": "token",
          "type": "address"
        },
        {
          "indexed": false,
          "internalType": "uint256",
          "name": "amount",
          "type": "uint256"
        }
      ],
      "name": "Supply",
      "type": "event"
    },
    {
      "anonymous": false,
      "inputs": [
        {
          "indexed": true,
          "internalType": "address",
          "name": "user",
          "type": "address"
        },
        {
          "indexed": true,
          "internalType": "address",
          "name": "token",
          "type": "address"
        },
        {
          "indexed": false,
          "internalType": "uint256",
          "name": "amount",
          "type": "uint256"
        }
      ],
      "name": "Withdraw",
      "type": "event"
    },
    {
      "inputs": [],
      "name": "MAX_LTV",
      "outputs": [
        {
          "internalType": "uint256",
          "name": "",
          "type": "uint256"
        }
      ],
      "stateMutability": "view",
      "type": "function"
    },
    {
      "inputs": [],
      "name": "MIN_HEALTH_FACTOR",
      "outputs": [
        {
          "internalType": "uint256",
          "name": "",
          "type": "uint256"
        }
      ],
      "stateMutability": "view",
      "type": "function"
    },
    {
      "inputs": [
        {
          "internalType": "address",
          "name": "token",
          "type": "address"
        },
        {
          "internalType": "uint256",
          "name": "amount",
          "type": "uint256"
        }
      ],
      "name": "addLiquidity",
      "outputs": [],
      "stateMutability": "nonpayable",
      "type": "function"
    },
    {
      "inputs": [
        {
          "internalType": "address",
          "name": "collateralToken",
          "type": "address"
        },
        {
          "internalType": "address",
          "name": "borrowToken",
          "type": "address"
        },
        {
          "internalType": "uint256",
          "name": "amount",
          "type": "uint256"
        },
        {
          "internalType": "address",
          "name": "onBehalf",
          "type": "address"
        },
        {
          "internalType": "address",
          "name": "receiver",
          "type": "address"
        }
      ],
      "name": "borrow",
      "outputs": [],
      "stateMutability": "nonpayable",
      "type": "function"
    },
    {
      "inputs": [
        {
          "internalType": "address",
          "name": "user",
          "type": "address"
        },
        {
          "internalType": "address",
          "name": "collateralToken",
          "type": "address"
        },
        {
          "internalType": "address",
          "name": "borrowToken",
          "type": "address"
        }
      ],
      "name": "calculateHealthFactor",
      "outputs": [
        {
          "internalType": "uint256",
          "name": "healthFactor",
          "type": "uint256"
        }
      ],
      "stateMutability": "view",
      "type": "function"
    },
    {
      "inputs": [
        {
          "internalType": "address",
          "name": "user",
          "type": "address"
        },
        {
          "internalType": "address",
          "name": "collateralToken",
          "type": "address"
        },
        {
          "internalType": "address",
          "name": "borrowToken",
          "type": "address"
        }
      ],
      "name": "getPosition",
      "outputs": [
        {
          "internalType": "uint256",
          "name": "collateral",
          "type": "uint256"
        },
        {
          "internalType": "uint256",
          "name": "debt",
          "type": "uint256"
        }
      ],
      "stateMutability": "view",
      "type": "function"
    },
    {
      "inputs": [
        {
          "internalType": "address",
          "name": "user",
          "type": "address"
        },
        {
          "internalType": "address",
          "name": "collateralToken",
          "type": "address"
        },
        {
          "internalType": "address",
          "name": "borrowToken",
          "type": "address"
        }
      ],
      "name": "getUserAccountData",
      "outputs": [
        {
          "internalType": "uint256",
          "name": "totalCollateral",
          "type": "uint256"
        },
        {
          "internalType": "uint256",
          "name": "totalDebt",
          "type": "uint256"
        },
        {
          "internalType": "uint256",
          "name": "availableBorrow",
          "type": "uint256"
        },
        {
          "internalType": "uint256",
          "name": "healthFactor",
          "type": "uint256"
        }
      ],
      "stateMutability": "view",
      "type": "function"
    },
    {
      "inputs": [],
      "name": "oracle",
      "outputs": [
        {
          "internalType": "address",
          "name": "",
          "type": "address"
        }
      ],
      "stateMutability": "view",
      "type": "function"
    },
    {
      "inputs": [
        {
          "internalType": "address",
          "name": "token",
          "type": "address"
        },
        {
          "internalType": "uint256",
          "name": "amount",
          "type": "uint256"
        },
        {
          "internalType": "address",
          "name": "onBehalf",
          "type": "address"
        }
      ],
      "name": "repay",
      "outputs": [
        {
          "internalType": "uint256",
          "name": "",
          "type": "uint256"
        }
      ],
      "stateMutability": "nonpayable",
      "type": "function"
    },
    {
      "inputs": [
        {
          "internalType": "address",
          "name": "token",
          "type": "address"
        },
        {
          "internalType": "uint256",
          "name": "amount",
          "type": "uint256"
        }
      ],
      "name": "seedLiquidity",
      "outputs": [],
      "stateMutability": "nonpayable",
      "type": "function"
    },
    {
      "inputs": [
        {
          "internalType": "address",
          "name": "token",
          "type": "address"
        },
        {
          "internalType": "uint256",
          "name": "amount",
          "type": "uint256"
        },
        {
          "internalType": "address",
          "name": "onBehalf",
          "type": "address"
        }
      ],
      "name": "supply",
      "outputs": [],
      "stateMutability": "nonpayable",
      "type": "function"
    },
    {
      "inputs": [
        {
          "internalType": "address",
          "name": "",
          "type": "address"
        }
      ],
      "name": "totalLiquidity",
      "outputs": [
        {
          "internalType": "uint256",
          "name": "",
          "type": "uint256"
        }
      ],
      "stateMutability": "view",
      "type": "function"
    },
    {
      "inputs": [
        {
          "internalType": "address",
          "name": "",
          "type": "address"
        },
        {
          "internalType": "address",
          "name": "",
          "type": "address"
        }
      ],
      "name": "userCollateral",
      "outputs": [
        {
          "internalType": "uint256",
          "name": "",
          "type": "uint256"
        }
      ],
      "stateMutability": "view",
      "type": "function"
    },
    {
      "inputs": [
        {
          "internalType": "address",
          "name": "",
          "type": "address"
        },
        {
          "internalType": "address",
          "name": "",
          "type": "address"
        }
      ],
      "name": "userDebt",
      "outputs": [
        {
          "internalType": "uint256",
          "name": "",
          "type": "uint256"
        }
      ],
      "stateMutability": "view",
      "type": "function"
    },
    {
      "inputs": [
        {
          "internalType": "address",
          "name": "token",
          "type": "address"
        },
        {
          "internalType": "uint256",
          "name": "amount",
          "type": "uint256"
        },
        {
          "internalType": "address",
          "name": "onBehalf",
          "type": "address"
        },
        {
          "internalType": "address",
          "name": "receiver",
          "type": "address"
        }
      ],
      "name": "withdraw",
      "outputs": [
        {
          "internalType": "uint256",
          "name": "",
          "type": "uint256"
        }
      ],
      "stateMutability": "nonpayable",
      "type": "function"
    },
    {
      "stateMutability": "payable",
      "type": "receive"
    }
  ],
  "bytecode": "0x60a060405234801561000f575f80fd5b506040516112d73803806112d783398101604081905261002e9161003f565b6001600160a01b031660805261006c565b5f6020828403121561004f575f80fd5b81516001600160a01b0381168114610065575f80fd5b9392505050565b6080516112456100925f395f818161026b015281816107710152610e6401526112455ff3fe6080604052600436106100e7575f3560e01c80637dc0d1d011610087578063b5627e4211610057578063b5627e42146102fe578063c56326de14610319578063dfcd412e14610344578063f611890414610363575f80fd5b80637dc0d1d01461025a57806381bf8d3d146102a55780638b2a4df5146102c0578063a131543e146102df575f80fd5b80635ceae9c4116100c25780635ceae9c41461018f57806362412e2d146101ae5780636a65ec96146101cd578063713390f5146101ec575f80fd5b806314c8ad2c146100f25780632b92a07d1461013b578063566887001461016e575f80fd5b366100ee57005b5f80fd5b3480156100fd575f80fd5b5061012861010c366004610fd0565b600160209081525f928352604080842090915290825290205481565b6040519081526020015b60405180910390f35b348015610146575f80fd5b50610128610155366004610fd0565b5f60208181529281526040808220909352908152205481565b348015610179575f80fd5b5061018d610188366004611001565b6103a2565b005b34801561019a575f80fd5b506101286101a9366004611029565b6104cc565b3480156101b9575f80fd5b5061018d6101c8366004611001565b610698565b3480156101d8575f80fd5b506101286101e7366004611062565b6106ed565b3480156101f7575f80fd5b50610245610206366004611062565b6001600160a01b039283165f81815260208181526040808320958716835294815284822054928252600181528482209390951681529190935220549091565b60408051928352602083019190915201610132565b348015610265575f80fd5b5061028d7f000000000000000000000000000000000000000000000000000000000000000081565b6040516001600160a01b039091168152602001610132565b3480156102b0575f80fd5b50610128670b1a2bc2ec50000081565b3480156102cb575f80fd5b5061018d6102da366004611029565b61089e565b3480156102ea575f80fd5b5061018d6102f9366004611099565b610a07565b348015610309575f80fd5b506101286710a741a46278000081565b348015610324575f80fd5b506101286103333660046110f3565b60026020525f908152604090205481565b34801561034f575f80fd5b5061012861035e36600461110c565b610c49565b34801561036e575f80fd5b5061038261037d366004611062565b610de1565b604080519485526020850193909352918301526060820152608001610132565b604051336024820152306044820152606481018290525f906001600160a01b0384169060840160408051601f198184030181529181526020820180516001600160e01b03166323b872dd60e01b179052516103fd9190611156565b5f604051808303815f865af19150503d805f8114610436576040519150601f19603f3d011682016040523d82523d5f602084013e61043b565b606091505b505090508061045d576040516312171d8360e31b815260040160405180910390fd5b6001600160a01b0383165f9081526002602052604081208054849290610484908490611196565b90915550506040518281526001600160a01b038416907fc17cea59c2955cb181b03393209566960365771dbba9dc3d510180e7cb3120889060200160405180910390a2505050565b6001600160a01b038082165f908152600160209081526040808320938716835292905290812054835f1981148061050257508185115b1561050a5750805b805f0361051b575f92505050610691565b604051336024820152306044820152606481018290525f906001600160a01b0388169060840160408051601f198184030181529181526020820180516001600160e01b03166323b872dd60e01b179052516105769190611156565b5f604051808303815f865af19150503d805f81146105af576040519150601f19603f3d011682016040523d82523d5f602084013e6105b4565b606091505b50509050806105d6576040516312171d8360e31b815260040160405180910390fd5b6001600160a01b038086165f908152600160209081526040808320938b168352929052908120805484929061060c9084906111af565b90915550506001600160a01b0387165f9081526002602052604081208054849290610638908490611196565b92505081905550866001600160a01b0316856001600160a01b03167f05f2eeda0e08e4b437f487c8d7d29b14537d15e3488170dc3de5dbdf8dac46848460405161068491815260200190565b60405180910390a3509150505b9392505050565b604051306024820152604481018290525f906001600160a01b0384169060640160408051601f198184030181529181526020820180516001600160e01b03166340c10f1960e01b179052516103fd9190611156565b6001600160a01b038084165f81815260208181526040808320878616845282528083205493835260018252808320948616835293905291822054808303610739575f1992505050610691565b60408051600481526024810182526020810180516001600160e01b031663501ad8ff60e11b17905290515f9182916001600160a01b037f0000000000000000000000000000000000000000000000000000000000000000169161079b91611156565b5f60405180830381855afa9150503d805f81146107d3576040519150601f19603f3d011682016040523d82523d5f602084013e6107d8565b606091505b5091509150816108245760405162461bcd60e51b815260206004820152601260248201527113dc9858db194818d85b1b0819985a5b195960721b60448201526064015b60405180910390fd5b5f8180602001905181019061083991906111c2565b90505f6ec097ce7bc90715b34b9f100000000061085683886111d9565b61086091906111f0565b905061087164e8d4a51000826111f0565b905084610886670b1a2bc2ec500000836111d9565b61089091906111f0565b9a9950505050505050505050565b815f036108be5760405163162908e360e11b815260040160405180910390fd5b604051336024820152306044820152606481018390525f906001600160a01b0385169060840160408051601f198184030181529181526020820180516001600160e01b03166323b872dd60e01b179052516109199190611156565b5f604051808303815f865af19150503d805f8114610952576040519150601f19603f3d011682016040523d82523d5f602084013e610957565b606091505b5050905080610979576040516312171d8360e31b815260040160405180910390fd5b6001600160a01b038083165f90815260208181526040808320938816835292905290812080548592906109ad908490611196565b92505081905550836001600160a01b0316826001600160a01b03167fd1cf3d156d5f8f0d50f6c122ed609cec09d35c9b9fb3fff6ea0959134dae424e856040516109f991815260200190565b60405180910390a350505050565b825f03610a275760405163162908e360e11b815260040160405180910390fd5b6001600160a01b0384165f90815260026020526040902054831115610a5f5760405163bb55fd2760e01b815260040160405180910390fd5b6001600160a01b038083165f90815260016020908152604080832093881683529290529081208054859290610a95908490611196565b909155505f9050610aa78387876106ed565b90506710a741a462780000811015610b0f576001600160a01b038084165f90815260016020908152604080832093891683529290529081208054869290610aef9084906111af565b9250508190555060405163317416e560e11b815260040160405180910390fd5b6001600160a01b0385165f9081526002602052604081208054869290610b369084906111af565b90915550506040516001600160a01b038381166024830152604482018690525f919087169060640160408051601f198184030181529181526020820180516001600160e01b031663a9059cbb60e01b17905251610b939190611156565b5f604051808303815f865af19150503d805f8114610bcc576040519150601f19603f3d011682016040523d82523d5f602084013e610bd1565b606091505b5050905080610bf3576040516312171d8360e31b815260040160405180910390fd5b856001600160a01b0316846001600160a01b03167f312a5e5e1079f5dda4e95dbbd0b908b291fd5b992ef22073643ab691572c5b5287604051610c3891815260200190565b60405180910390a350505050505050565b6001600160a01b038083165f90815260208181526040808320938816835292905290812054845f19811480610c7d57508186115b15610c855750805b805f03610c96575f92505050610dd9565b6001600160a01b038086165f90815260208181526040808320938b1683529290529081208054839290610cca9084906111af565b90915550506040516001600160a01b038581166024830152604482018390525f919089169060640160408051601f198184030181529181526020820180516001600160e01b031663a9059cbb60e01b17905251610d279190611156565b5f604051808303815f865af19150503d805f8114610d60576040519150601f19603f3d011682016040523d82523d5f602084013e610d65565b606091505b5050905080610d87576040516312171d8360e31b815260040160405180910390fd5b876001600160a01b0316866001600160a01b03167f9b1bfa7fa9ee420a16e124f794c35ac9f90472acc99140eb2f6447c714cad8eb84604051610dcc91815260200190565b60405180910390a3509150505b949350505050565b6001600160a01b038084165f81815260208181526040808320878616845282528083205493835260018252808320948616835293905291822054909180610e298787876106ed565b60408051600481526024810182526020810180516001600160e01b031663501ad8ff60e11b17905290519192505f9182916001600160a01b037f00000000000000000000000000000000000000000000000000000000000000001691610e8f9190611156565b5f60405180830381855afa9150503d805f8114610ec7576040519150601f19603f3d011682016040523d82523d5f602084013e610ecc565b606091505b509150915081610f135760405162461bcd60e51b815260206004820152601260248201527113dc9858db194818d85b1b0819985a5b195960721b604482015260640161081b565b5f81806020019051810190610f2891906111c2565b90505f6ec097ce7bc90715b34b9f1000000000610f45838a6111d9565b610f4f91906111f0565b9050610f6064e8d4a51000826111f0565b90505f670de0b6b3a7640000610f7e670b1a2bc2ec500000846111d9565b610f8891906111f0565b905087811115610fa357610f9c88826111af565b9650610fa7565b5f96505b505050505093509350935093565b80356001600160a01b0381168114610fcb575f80fd5b919050565b5f8060408385031215610fe1575f80fd5b610fea83610fb5565b9150610ff860208401610fb5565b90509250929050565b5f8060408385031215611012575f80fd5b61101b83610fb5565b946020939093013593505050565b5f805f6060848603121561103b575f80fd5b61104484610fb5565b92506020840135915061105960408501610fb5565b90509250925092565b5f805f60608486031215611074575f80fd5b61107d84610fb5565b925061108b60208501610fb5565b915061105960408501610fb5565b5f805f805f60a086880312156110ad575f80fd5b6110b686610fb5565b94506110c460208701610fb5565b9350604086013592506110d960608701610fb5565b91506110e760808701610fb5565b90509295509295909350565b5f60208284031215611103575f80fd5b61069182610fb5565b5f805f806080858703121561111f575f80fd5b61112885610fb5565b93506020850135925061113d60408601610fb5565b915061114b60608601610fb5565b905092959194509250565b5f82515f5b81811015611175576020818601810151858301520161115b565b505f920191825250919050565b634e487b7160e01b5f52601160045260245ffd5b808201808211156111a9576111a9611182565b92915050565b818103818111156111a9576111a9611182565b5f602082840312156111d2575f80fd5b5051919050565b80820281158282048414176111a9576111a9611182565b5f8261120a57634e487b7160e01b5f52601260045260245ffd5b50049056fea2646970667358221220af1574dff16b1979c0d2bf8953ec886705deb6d445d1ca8732e3d3574c59fc9264736f6c63430008140033",
  "linkReferences": {},
  "deployedLinkReferences": {},
  "immutableReferences": {
    "24": [
      {
        "length": 32,
        "start": 619
      },
      {
        "length": 32,
        "start": 1905
      },
      {
        "length": 32,
        "start": 3684
      }
    ]
  },
  "inputSourceName": "project/contracts/mocks/MockLendingPool.sol",
  "buildInfoId": "solc-0_8_20-86aff5cfc87e1f04e362e50538e313a640d9a3e4"
}