{
  "_format": "hh3-artifact-1",
  "contractName": "ReactiveMorphoShield",
  "sourceName": "contracts/ReactiveMorphoShield.sol",
  "abi": [
    {
      "inputs": [
        {
          "internalType": "address",
          "name": "_loanToken",
          "type": "address"
        },
        {
          "internalType": "address",
          "name": "_collateralToken",
          "type": "address"
        },
        {
          "internalType": "address",
          "name": "_oracle",
          "type": "address"
        },
        {
          "internalType": "address",
          "name": "_reactiveVmId",
          "type": "address"
        }
      ],
      "stateMutability": "nonpayable",
      "type": "constructor"
    },
    {
      "inputs": [],
      "name": "InvalidAmount",
      "type": "error"
    },
    {
      "inputs": [],
      "name": "MaxLoopsReached",
      "type": "error"
    },
    {
      "inputs": [],
      "name": "TransferFailed",
      "type": "error"
    },
    {
      "inputs": [],
      "name": "UnauthorizedCaller",
      "type": "error"
    },
    {
      "anonymous": false,
      "inputs": [
        {
          "indexed": true,
          "internalType": "address",
          "name": "user",
          "type": "address"
        },
        {
          "indexed": false,
          "internalType": "uint256",
          "name": "amount",
          "type": "uint256"
        }
      ],
      "name": "Deposit",
      "type": "event"
    },
    {
      "anonymous": false,
      "inputs": [
        {
          "indexed": false,
          "internalType": "uint8",
          "name": "iteration",
          "type": "uint8"
        },
        {
          "indexed": false,
          "internalType": "uint256",
          "name": "borrowedAmount",
          "type": "uint256"
        },
        {
          "indexed": false,
          "internalType": "uint256",
          "name": "mintedCollateral",
          "type": "uint256"
        }
      ],
      "name": "LoopStep",
      "type": "event"
    },
    {
      "anonymous": false,
      "inputs": [
        {
          "indexed": false,
          "internalType": "uint256",
          "name": "repaidDebt",
          "type": "uint256"
        },
        {
          "indexed": false,
          "internalType": "uint256",
          "name": "withdrawnCollateral",
          "type": "uint256"
        }
      ],
      "name": "Unwind",
      "type": "event"
    },
    {
      "inputs": [],
      "name": "CALLBACK_PROXY",
      "outputs": [
        {
          "internalType": "address",
          "name": "",
          "type": "address"
        }
      ],
      "stateMutability": "view",
      "type": "function"
    },
    {
      "inputs": [],
      "name": "LLTV",
      "outputs": [
        {
          "internalType": "uint256",
          "name": "",
          "type": "uint256"
        }
      ],
      "stateMutability": "view",
      "type": "function"
    },
    {
      "inputs": [],
      "name": "MAX_LOOPS",
      "outputs": [
        {
          "internalType": "uint8",
          "name": "",
          "type": "uint8"
        }
      ],
      "stateMutability": "view",
      "type": "function"
    },
    {
      "inputs": [],
      "name": "MORPHO",
      "outputs": [
        {
          "internalType": "address",
          "name": "",
          "type": "address"
        }
      ],
      "stateMutability": "view",
      "type": "function"
    },
    {
      "inputs": [],
      "name": "TARGET_LTV",
      "outputs": [
        {
          "internalType": "uint256",
          "name": "",
          "type": "uint256"
        }
      ],
      "stateMutability": "view",
      "type": "function"
    },
    {
      "inputs": [],
      "name": "collateralToken",
      "outputs": [
        {
          "internalType": "contract IERC20",
          "name": "",
          "type": "address"
        }
      ],
      "stateMutability": "view",
      "type": "function"
    },
    {
      "inputs": [
        {
          "internalType": "uint256",
          "name": "amount",
          "type": "uint256"
        }
      ],
      "name": "deposit",
      "outputs": [],
      "stateMutability": "nonpayable",
      "type": "function"
    },
    {
      "inputs": [
        {
          "internalType": "address",
          "name": "sender",
          "type": "address"
        }
      ],
      "name": "executeLoop",
      "outputs": [],
      "stateMutability": "nonpayable",
      "type": "function"
    },
    {
      "inputs": [],
      "name": "getMarketId",
      "outputs": [
        {
          "internalType": "bytes32",
          "name": "",
          "type": "bytes32"
        }
      ],
      "stateMutability": "view",
      "type": "function"
    },
    {
      "inputs": [],
      "name": "getPosition",
      "outputs": [
        {
          "internalType": "uint128",
          "name": "collateral",
          "type": "uint128"
        },
        {
          "internalType": "uint128",
          "name": "debt",
          "type": "uint128"
        },
        {
          "internalType": "uint8",
          "name": "currentLoopCount",
          "type": "uint8"
        }
      ],
      "stateMutability": "view",
      "type": "function"
    },
    {
      "inputs": [],
      "name": "loanToken",
      "outputs": [
        {
          "internalType": "contract IERC20",
          "name": "",
          "type": "address"
        }
      ],
      "stateMutability": "view",
      "type": "function"
    },
    {
      "inputs": [],
      "name": "loopCount",
      "outputs": [
        {
          "internalType": "uint8",
          "name": "",
          "type": "uint8"
        }
      ],
      "stateMutability": "view",
      "type": "function"
    },
    {
      "inputs": [],
      "name": "market",
      "outputs": [
        {
          "internalType": "address",
          "name": "loanToken",
          "type": "address"
        },
        {
          "internalType": "address",
          "name": "collateralToken",
          "type": "address"
        },
        {
          "internalType": "address",
          "name": "oracle",
          "type": "address"
        },
        {
          "internalType": "address",
          "name": "irm",
          "type": "address"
        },
        {
          "internalType": "uint256",
          "name": "lltv",
          "type": "uint256"
        }
      ],
      "stateMutability": "view",
      "type": "function"
    },
    {
      "inputs": [],
      "name": "pay",
      "outputs": [],
      "stateMutability": "payable",
      "type": "function"
    },
    {
      "inputs": [],
      "name": "reactiveVmId",
      "outputs": [
        {
          "internalType": "address",
          "name": "",
          "type": "address"
        }
      ],
      "stateMutability": "view",
      "type": "function"
    },
    {
      "inputs": [
        {
          "internalType": "address",
          "name": "sender",
          "type": "address"
        }
      ],
      "name": "unwind",
      "outputs": [],
      "stateMutability": "nonpayable",
      "type": "function"
    },
    {
      "stateMutability": "payable",
      "type": "receive"
    }
  ],
  "bytecode": "0x60e060405234801562000010575f80fd5b5060405162001368380380620013688339810160408190526200003391620000e1565b6001600160a01b0393841660c081905292841660a0818152918516608090815260408051938401815285845260208401839052939095169282018390525f60608301819052670b1a2bc2ec5000009290950182905284546001600160a01b031990811690941790945560018054841690941790935560028054831690911790556003805490911690556004556200013b565b80516001600160a01b0381168114620000dc575f80fd5b919050565b5f805f8060808587031215620000f5575f80fd5b6200010085620000c5565b93506200011060208601620000c5565b92506200012060408601620000c5565b91506200013060608601620000c5565b905092959194509250565b60805160a05160c0516111ca6200019e5f395f818161010e015281816109190152610a1f01525f8181610328015281816105400152818161064b01528181610d090152610dcb01525f8181610160015281816103d401526107ad01526111ca5ff3fe6080604052600436106100f2575f3560e01c80637398ab1811610087578063b2016bd411610057578063b2016bd414610317578063b6b55f251461034a578063e91675b814610369578063fd52797b14610382575f80fd5b80637398ab181461022f57806380f556051461026c57806397d9b1b5146102dc578063a5836693146102f0575f80fd5b806337c848dc116100c257806337c848dc146101a85780633acb5624146101c75780634aba005b146101ee578063568ef4701461020d575f80fd5b806306d37817146100fd5780631b9265b81461014d57806333424f831461014f57806337a2eb7114610182575f80fd5b366100f957005b5f80fd5b348015610108575f80fd5b506101307f000000000000000000000000000000000000000000000000000000000000000081565b6040516001600160a01b0390911681526020015b60405180910390f35b005b34801561015a575f80fd5b506101307f000000000000000000000000000000000000000000000000000000000000000081565b34801561018d575f80fd5b50610196600581565b60405160ff9091168152602001610144565b3480156101b3575f80fd5b5061014d6101c2366004610edf565b61039d565b3480156101d2575f80fd5b5061013073bbbbbbbbbb9cc5e90e3b3af64bdaf62c37eeffcb81565b3480156101f9575f80fd5b5061014d610208366004610edf565b610776565b348015610218575f80fd5b50610221610bd0565b604051908152602001610144565b34801561023a575f80fd5b50610243610bfd565b604080516001600160801b03948516815293909216602084015260ff1690820152606001610144565b348015610277575f80fd5b505f546001546002546003546004546102a1946001600160a01b0390811694811693811692169085565b604080516001600160a01b0396871681529486166020860152928516928401929092529092166060820152608081019190915260a001610144565b3480156102e7575f80fd5b50610221604681565b3480156102fb575f80fd5b5061013073c9f36411c9897e7f959d99ffca2a0ba7ee0d7bda81565b348015610322575f80fd5b506101307f000000000000000000000000000000000000000000000000000000000000000081565b348015610355575f80fd5b5061014d610364366004610f0c565b610cbb565b348015610374575f80fd5b506005546101969060ff1681565b34801561038d575f80fd5b50610221670b1a2bc2ec50000081565b803373c9f36411c9897e7f959d99ffca2a0ba7ee0d7bda146103d257604051635c427cd960e01b815260040160405180910390fd5b7f00000000000000000000000000000000000000000000000000000000000000006001600160a01b0316816001600160a01b03161461042457604051635c427cd960e01b815260040160405180910390fd5b6005805460ff1610610449576040516349ce3cdb60e01b815260040160405180910390fd5b6005805460ff16905f61045b83610f37565b825460ff9182166101009390930a9283029190920219909116179055506040516350d8cd4b60e01b8152633b9aca009073bbbbbbbbbb9cc5e90e3b3af64bdaf62c37eeffcb906350d8cd4b906104bd905f908590829030908190600401610f93565b60408051808303815f875af11580156104d8573d5f803e3d5ffd5b505050506040513d601f19601f820116820180604052508101906104fc9190610fcf565b505f905063b2d05e0061051783670de0b6b3a7640000610ff1565b610521919061100e565b604051306024820152604481018290529091505f906001600160a01b037f0000000000000000000000000000000000000000000000000000000000000000169060640160408051601f198184030181529181526020820180516001600160e01b03166340c10f1960e01b17905251610599919061102d565b5f604051808303815f865af19150503d805f81146105d2576040519150601f19603f3d011682016040523d82523d5f602084013e6105d7565b606091505b505090508061061b5760405162461bcd60e51b815260206004820152600b60248201526a135a5b9d0819985a5b195960aa1b60448201526064015b60405180910390fd5b60405163095ea7b360e01b815273bbbbbbbbbb9cc5e90e3b3af64bdaf62c37eeffcb6004820152602481018390527f00000000000000000000000000000000000000000000000000000000000000006001600160a01b03169063095ea7b3906044016020604051808303815f875af1158015610699573d5f803e3d5ffd5b505050506040513d601f19601f820116820180604052508101906106bd9190611059565b5060405163238d657960e01b815273bbbbbbbbbb9cc5e90e3b3af64bdaf62c37eeffcb9063238d6579906106f9905f9086903090600401611078565b5f604051808303815f87803b158015610710575f80fd5b505af1158015610722573d5f803e3d5ffd5b50506005546040805160ff90921682526020820187905281018590527f1feb22739013b7d7906e656b39e3e8f16b1018f542fea34cf243fa4994825e6a925060600190505b60405180910390a15050505050565b803373c9f36411c9897e7f959d99ffca2a0ba7ee0d7bda146107ab57604051635c427cd960e01b815260040160405180910390fd5b7f00000000000000000000000000000000000000000000000000000000000000006001600160a01b0316816001600160a01b0316146107fd57604051635c427cd960e01b815260040160405180910390fd5b5f8060405160200161080f91906110b8565b60408051808303601f190181529082905280516020909101206349e2903160e11b82526004820181905230602483015291505f90819073bbbbbbbbbb9cc5e90e3b3af64bdaf62c37eeffcb906393c5206290604401606060405180830381865afa15801561087f573d5f803e3d5ffd5b505050506040513d601f19601f820116820180604052508101906108a391906110e1565b9250925050816001600160801b03165f036108f657604080515f81526001600160801b03831660208201527f20762f4b6d86a533e0c5e357564ede46c3c37774f0d1bde46aef9f7b1f3ae87e9101610767565b60405130602482015264012a05f20060448201819052905f906001600160a01b037f0000000000000000000000000000000000000000000000000000000000000000169060640160408051601f198184030181529181526020820180516001600160e01b03166340c10f1960e01b17905251610972919061102d565b5f604051808303815f865af19150503d805f81146109ab576040519150601f19603f3d011682016040523d82523d5f602084013e6109b0565b606091505b50509050806109ef5760405162461bcd60e51b815260206004820152600b60248201526a135a5b9d0819985a5b195960aa1b6044820152606401610612565b60405163095ea7b360e01b815273bbbbbbbbbb9cc5e90e3b3af64bdaf62c37eeffcb6004820152602481018390527f00000000000000000000000000000000000000000000000000000000000000006001600160a01b03169063095ea7b3906044016020604051808303815f875af1158015610a6d573d5f803e3d5ffd5b505050506040513d601f19601f82011682018060405250810190610a919190611059565b506040516320b76e8160e01b815273bbbbbbbbbb9cc5e90e3b3af64bdaf62c37eeffcb906320b76e8190610ad0905f9081905f1990309060040161111a565b60408051808303815f875af1158015610aeb573d5f803e3d5ffd5b505050506040513d601f19601f82011682018060405250810190610b0f9190610fcf565b5050604051638720316d60e01b815273bbbbbbbbbb9cc5e90e3b3af64bdaf62c37eeffcb90638720316d90610b4f905f905f199030908190600401611160565b5f604051808303815f87803b158015610b66575f80fd5b505af1158015610b78573d5f803e3d5ffd5b50506005805460ff191690555050604080518381526001600160801b03851660208201527f20762f4b6d86a533e0c5e357564ede46c3c37774f0d1bde46aef9f7b1f3ae87e910160405180910390a150505050505050565b5f80604051602001610be291906110b8565b60405160208183030381529060405280519060200120905090565b5f805f805f604051602001610c1291906110b8565b60408051808303601f190181529082905280516020909101206349e2903160e11b82526004820181905230602483015291505f90819073bbbbbbbbbb9cc5e90e3b3af64bdaf62c37eeffcb906393c5206290604401606060405180830381865afa158015610c82573d5f803e3d5ffd5b505050506040513d601f19601f82011682018060405250810190610ca691906110e1565b600554909991985060ff169650945050505050565b805f03610cdb5760405163162908e360e11b815260040160405180910390fd5b6005805460ff191690556040516323b872dd60e01b8152336004820152306024820152604481018290525f907f00000000000000000000000000000000000000000000000000000000000000006001600160a01b0316906323b872dd906064016020604051808303815f875af1158015610d57573d5f803e3d5ffd5b505050506040513d601f19601f82011682018060405250810190610d7b9190611059565b905080610d9b576040516312171d8360e31b815260040160405180910390fd5b60405163095ea7b360e01b815273bbbbbbbbbb9cc5e90e3b3af64bdaf62c37eeffcb6004820152602481018390527f00000000000000000000000000000000000000000000000000000000000000006001600160a01b03169063095ea7b3906044016020604051808303815f875af1158015610e19573d5f803e3d5ffd5b505050506040513d601f19601f82011682018060405250810190610e3d9190611059565b5060405163238d657960e01b815273bbbbbbbbbb9cc5e90e3b3af64bdaf62c37eeffcb9063238d657990610e79905f9086903090600401611078565b5f604051808303815f87803b158015610e90575f80fd5b505af1158015610ea2573d5f803e3d5ffd5b50506040518481523392507fe1fffcc4923d04b559f4d29a8bfc6cda04eb5b0d3c460751c2402c5c5cc9109c915060200160405180910390a25050565b5f60208284031215610eef575f80fd5b81356001600160a01b0381168114610f05575f80fd5b9392505050565b5f60208284031215610f1c575f80fd5b5035919050565b634e487b7160e01b5f52601160045260245ffd5b5f60ff821660ff8103610f4c57610f4c610f23565b60010192915050565b80546001600160a01b039081168352600182015481166020840152600282015481166040840152600382015416606083015260040154608090910152565b6101208101610fa28288610f55565b60a082019590955260c08101939093526001600160a01b0391821660e08401521661010090910152919050565b5f8060408385031215610fe0575f80fd5b505080516020909101519092909150565b808202811582820484141761100857611008610f23565b92915050565b5f8261102857634e487b7160e01b5f52601260045260245ffd5b500490565b5f82515f5b8181101561104c5760208186018101518583015201611032565b505f920191825250919050565b5f60208284031215611069575f80fd5b81518015158114610f05575f80fd5b5f6101006110868387610f55565b60a0830194909452506001600160a01b039190911660c082015260e081018290525f9181019190915261012001919050565b60a081016110088284610f55565b80516001600160801b03811681146110dc575f80fd5b919050565b5f805f606084860312156110f3575f80fd5b83519250611103602085016110c6565b9150611111604085016110c6565b90509250925092565b5f6101206111288388610f55565b60a08301959095525060c08101929092526001600160a01b031660e082015261010081018290525f9181019190915261014001919050565b610100810161116f8287610f55565b60a08201949094526001600160a01b0392831660c0820152911660e09091015291905056fea26469706673582212207cdc8879608b2c61f4dd02bdbcdab0e9ee6705f34e29c3c9c68c9a9580804c7164736f6c63430008140033",
  "linkReferences": {},
  "deployedLinkReferences": {},
  "immutableReferences": {
    "110": [
      {
        "length": 32,
        "start": 352
      },
      {
        "length": 32,
        "start": 980
      },
      {
        "length": 32,
        "start": 1965
      }
    ],
    "114": [
      {
        "length": 32,
        "start": 808
      },
      {
        "length": 32,
        "start": 1344
      },
      {
        "length": 32,
        "start": 1611
      },
      {
        "length": 32,
        "start": 3337
      },
      {
        "length": 32,
        "start": 3531
      }
    ],
    "118": [
      {
        "length": 32,
        "start": 270
      },
      {
        "length": 32,
        "start": 2329
      },
      {
        "length": 32,
        "start": 2591
      }
    ]
  },
  "inputSourceName": "project/contracts/ReactiveMorphoShield.sol",
  "buildInfoId": "solc-0_8_20-76717d91419f8f9f28fd14dd2497817e9d8b7f62"
}