{
  "_format": "hh3-artifact-1",
  "contractName": "ReactiveVault",
  "sourceName": "contracts/ReactiveVault.sol",
  "abi": [
    {
      "inputs": [
        {
          "internalType": "address",
          "name": "_pool",
          "type": "address"
        },
        {
          "internalType": "address",
          "name": "_collateralToken",
          "type": "address"
        },
        {
          "internalType": "address",
          "name": "_loanToken",
          "type": "address"
        },
        {
          "internalType": "address",
          "name": "_reactiveVmId",
          "type": "address"
        }
      ],
      "stateMutability": "nonpayable",
      "type": "constructor"
    },
    {
      "inputs": [],
      "name": "InvalidAmount",
      "type": "error"
    },
    {
      "inputs": [],
      "name": "MaxLoopsReached",
      "type": "error"
    },
    {
      "inputs": [],
      "name": "TransferFailed",
      "type": "error"
    },
    {
      "inputs": [],
      "name": "UnauthorizedCaller",
      "type": "error"
    },
    {
      "anonymous": false,
      "inputs": [
        {
          "indexed": true,
          "internalType": "address",
          "name": "user",
          "type": "address"
        },
        {
          "indexed": false,
          "internalType": "uint256",
          "name": "amount",
          "type": "uint256"
        }
      ],
      "name": "Deposit",
      "type": "event"
    },
    {
      "anonymous": false,
      "inputs": [
        {
          "indexed": false,
          "internalType": "uint8",
          "name": "iteration",
          "type": "uint8"
        },
        {
          "indexed": false,
          "internalType": "uint256",
          "name": "borrowedAmount",
          "type": "uint256"
        },
        {
          "indexed": false,
          "internalType": "uint256",
          "name": "mintedCollateral",
          "type": "uint256"
        }
      ],
      "name": "LoopStep",
      "type": "event"
    },
    {
      "anonymous": false,
      "inputs": [
        {
          "indexed": false,
          "internalType": "uint256",
          "name": "repaidDebt",
          "type": "uint256"
        },
        {
          "indexed": false,
          "internalType": "uint256",
          "name": "withdrawnCollateral",
          "type": "uint256"
        }
      ],
      "name": "Unwind",
      "type": "event"
    },
    {
      "inputs": [],
      "name": "CALLBACK_PROXY",
      "outputs": [
        {
          "internalType": "address",
          "name": "",
          "type": "address"
        }
      ],
      "stateMutability": "view",
      "type": "function"
    },
    {
      "inputs": [],
      "name": "MAX_LOOPS",
      "outputs": [
        {
          "internalType": "uint8",
          "name": "",
          "type": "uint8"
        }
      ],
      "stateMutability": "view",
      "type": "function"
    },
    {
      "inputs": [],
      "name": "POOL",
      "outputs": [
        {
          "internalType": "address",
          "name": "",
          "type": "address"
        }
      ],
      "stateMutability": "view",
      "type": "function"
    },
    {
      "inputs": [],
      "name": "TARGET_LTV",
      "outputs": [
        {
          "internalType": "uint256",
          "name": "",
          "type": "uint256"
        }
      ],
      "stateMutability": "view",
      "type": "function"
    },
    {
      "inputs": [],
      "name": "collateralToken",
      "outputs": [
        {
          "internalType": "contract IERC20",
          "name": "",
          "type": "address"
        }
      ],
      "stateMutability": "view",
      "type": "function"
    },
    {
      "inputs": [
        {
          "internalType": "uint256",
          "name": "amount",
          "type": "uint256"
        }
      ],
      "name": "deposit",
      "outputs": [],
      "stateMutability": "nonpayable",
      "type": "function"
    },
    {
      "inputs": [
        {
          "internalType": "address",
          "name": "sender",
          "type": "address"
        }
      ],
      "name": "executeLoop",
      "outputs": [],
      "stateMutability": "nonpayable",
      "type": "function"
    },
    {
      "inputs": [],
      "name": "getPosition",
      "outputs": [
        {
          "internalType": "uint256",
          "name": "collateral",
          "type": "uint256"
        },
        {
          "internalType": "uint256",
          "name": "debt",
          "type": "uint256"
        },
        {
          "internalType": "uint8",
          "name": "currentLoopCount",
          "type": "uint8"
        },
        {
          "internalType": "uint256",
          "name": "healthFactor",
          "type": "uint256"
        }
      ],
      "stateMutability": "view",
      "type": "function"
    },
    {
      "inputs": [],
      "name": "loanToken",
      "outputs": [
        {
          "internalType": "contract IERC20",
          "name": "",
          "type": "address"
        }
      ],
      "stateMutability": "view",
      "type": "function"
    },
    {
      "inputs": [],
      "name": "loopCount",
      "outputs": [
        {
          "internalType": "uint8",
          "name": "",
          "type": "uint8"
        }
      ],
      "stateMutability": "view",
      "type": "function"
    },
    {
      "inputs": [],
      "name": "pay",
      "outputs": [],
      "stateMutability": "payable",
      "type": "function"
    },
    {
      "inputs": [],
      "name": "reactiveVmId",
      "outputs": [
        {
          "internalType": "address",
          "name": "",
          "type": "address"
        }
      ],
      "stateMutability": "view",
      "type": "function"
    },
    {
      "inputs": [
        {
          "internalType": "address",
          "name": "sender",
          "type": "address"
        }
      ],
      "name": "unwind",
      "outputs": [],
      "stateMutability": "nonpayable",
      "type": "function"
    },
    {
      "stateMutability": "payable",
      "type": "receive"
    }
  ],
  "bytecode": "0x61010060405234801562000011575f80fd5b50604051620013ee380380620013ee833981016040819052620000349162000073565b6001600160a01b0393841660805291831660c052821660e0521660a052620000cd565b80516001600160a01b03811681146200006e575f80fd5b919050565b5f805f806080858703121562000087575f80fd5b620000928562000057565b9350620000a26020860162000057565b9250620000b26040860162000057565b9150620000c26060860162000057565b905092959194509250565b60805160a05160c05160e051611223620001cb5f395f818160de015281816103a9015281816104eb015281816108ba015281816109cf01528181610aeb01528181610b6d0152610d6601525f818161028001528181610378015281816104c3015281816105c1015281816106e2015281816107640152818161089201528181610c2701528181610d3e01528181610e6501528181610f3d0152610fbf01525f61013001525f8181610204015281816103d501528181610527015281816106b301528181610799015281816108e601528181610abc01528181610ba401528181610c6801528181610d9801528181610f0e0152610ff401526112235ff3fe6080604052600436106100c2575f3560e01c80637398ab181161007c578063a583669311610057578063a583669314610248578063b2016bd41461026f578063b6b55f25146102a2578063e91675b8146102c1575f80fd5b80637398ab18146101b65780637535d246146101f357806397d9b1b514610226575f80fd5b806306d37817146100cd5780631b9265b81461011d57806333424f831461011f57806337a2eb711461015257806337c848dc146101785780634aba005b14610197575f80fd5b366100c957005b5f80fd5b3480156100d8575f80fd5b506101007f000000000000000000000000000000000000000000000000000000000000000081565b6040516001600160a01b0390911681526020015b60405180910390f35b005b34801561012a575f80fd5b506101007f000000000000000000000000000000000000000000000000000000000000000081565b34801561015d575f80fd5b50610166600581565b60405160ff9091168152602001610114565b348015610183575f80fd5b5061011d610192366004611084565b6102d9565b3480156101a2575f80fd5b5061011d6101b1366004611084565b610840565b3480156101c1575f80fd5b506101ca610d21565b6040516101149493929190938452602084019290925260ff166040830152606082015260800190565b3480156101fe575f80fd5b506101007f000000000000000000000000000000000000000000000000000000000000000081565b348015610231575f80fd5b5061023a604681565b604051908152602001610114565b348015610253575f80fd5b5061010073c9f36411c9897e7f959d99ffca2a0ba7ee0d7bda81565b34801561027a575f80fd5b506101007f000000000000000000000000000000000000000000000000000000000000000081565b3480156102ad575f80fd5b5061011d6102bc3660046110b1565b610e1a565b3480156102cc575f80fd5b505f546101669060ff1681565b803373c9f36411c9897e7f959d99ffca2a0ba7ee0d7bda1461030e57604051635c427cd960e01b815260040160405180910390fd5b5f54600560ff90911610610335576040516349ce3cdb60e01b815260040160405180910390fd5b5f805460ff169080610346836110dc565b825460ff9182166101009390930a928302919092021990911617905550604051633d84624160e21b81523060048201527f00000000000000000000000000000000000000000000000000000000000000006001600160a01b0390811660248301527f0000000000000000000000000000000000000000000000000000000000000000811660448301525f9182917f0000000000000000000000000000000000000000000000000000000000000000169063f611890490606401608060405180830381865afa15801561041a573d5f803e3d5ffd5b505050506040513d601f19601f8201168201806040525081019061043e91906110fa565b9350935050506710a741a46278000081101561046d576040516349ce3cdb60e01b815260040160405180910390fd5b5f606461047b84601e61112d565b610485919061114a565b90506302faf0808110156104ac576040516349ce3cdb60e01b815260040160405180910390fd5b604051635098aa1f60e11b81526001600160a01b037f0000000000000000000000000000000000000000000000000000000000000000811660048301527f00000000000000000000000000000000000000000000000000000000000000008116602483015260448201839052306064830181905260848301527f0000000000000000000000000000000000000000000000000000000000000000169063a131543e9060a4015f604051808303815f87803b158015610568575f80fd5b505af115801561057a573d5f803e3d5ffd5b505050505f63b2d05e0082670de0b6b3a7640000610598919061112d565b6105a2919061114a565b604051306024820152604481018290529091505f906001600160a01b037f0000000000000000000000000000000000000000000000000000000000000000169060640160408051601f198184030181529181526020820180516001600160e01b03166340c10f1960e01b1790525161061a9190611169565b5f604051808303815f865af19150503d805f8114610653576040519150601f19603f3d011682016040523d82523d5f602084013e610658565b606091505b505090508061069c5760405162461bcd60e51b815260206004820152600b60248201526a135a5b9d0819985a5b195960aa1b60448201526064015b60405180910390fd5b60405163095ea7b360e01b81526001600160a01b037f000000000000000000000000000000000000000000000000000000000000000081166004830152602482018490527f0000000000000000000000000000000000000000000000000000000000000000169063095ea7b3906044016020604051808303815f875af1158015610728573d5f803e3d5ffd5b505050506040513d601f19601f8201168201806040525081019061074c9190611195565b50604051638b2a4df560e01b81526001600160a01b037f000000000000000000000000000000000000000000000000000000000000000081166004830152602482018490523060448301527f00000000000000000000000000000000000000000000000000000000000000001690638b2a4df5906064015f604051808303815f87803b1580156107da575f80fd5b505af11580156107ec573d5f803e3d5ffd5b50505f546040805160ff90921682526020820187905281018590527f1feb22739013b7d7906e656b39e3e8f16b1018f542fea34cf243fa4994825e6a9250606001905060405180910390a150505050505050565b803373c9f36411c9897e7f959d99ffca2a0ba7ee0d7bda1461087557604051635c427cd960e01b815260040160405180910390fd5b60405163713390f560e01b81523060048201526001600160a01b037f0000000000000000000000000000000000000000000000000000000000000000811660248301527f0000000000000000000000000000000000000000000000000000000000000000811660448301525f9182917f0000000000000000000000000000000000000000000000000000000000000000169063713390f5906064016040805180830381865afa15801561092a573d5f803e3d5ffd5b505050506040513d601f19601f8201168201806040525081019061094e91906111b4565b91509150805f0361099857604080515f8152602081018490527f20762f4b6d86a533e0c5e357564ede46c3c37774f0d1bde46aef9f7b1f3ae87e910160405180910390a150505050565b5f60646109a683606e61112d565b6109b0919061114a565b604051306024820152604481018290529091505f906001600160a01b037f0000000000000000000000000000000000000000000000000000000000000000169060640160408051601f198184030181529181526020820180516001600160e01b03166340c10f1960e01b17905251610a289190611169565b5f604051808303815f865af19150503d805f8114610a61576040519150601f19603f3d011682016040523d82523d5f602084013e610a66565b606091505b5050905080610aa55760405162461bcd60e51b815260206004820152600b60248201526a135a5b9d0819985a5b195960aa1b6044820152606401610693565b60405163095ea7b360e01b81526001600160a01b037f000000000000000000000000000000000000000000000000000000000000000081166004830152602482018490527f0000000000000000000000000000000000000000000000000000000000000000169063095ea7b3906044016020604051808303815f875af1158015610b31573d5f803e3d5ffd5b505050506040513d601f19601f82011682018060405250810190610b559190611195565b5060405163173aba7160e21b81526001600160a01b037f0000000000000000000000000000000000000000000000000000000000000000811660048301525f1960248301523060448301525f917f000000000000000000000000000000000000000000000000000000000000000090911690635ceae9c4906064016020604051808303815f875af1158015610bec573d5f803e3d5ffd5b505050506040513d601f19601f82011682018060405250810190610c1091906111d6565b604051636fe6a09760e11b81526001600160a01b037f0000000000000000000000000000000000000000000000000000000000000000811660048301525f196024830152306044830181905260648301529192505f917f0000000000000000000000000000000000000000000000000000000000000000169063dfcd412e906084016020604051808303815f875af1158015610cae573d5f803e3d5ffd5b505050506040513d601f19601f82011682018060405250810190610cd291906111d6565b5f805460ff1916905560408051848152602081018390529192507f20762f4b6d86a533e0c5e357564ede46c3c37774f0d1bde46aef9f7b1f3ae87e910160405180910390a15050505050505050565b604051633d84624160e21b81523060048201526001600160a01b037f0000000000000000000000000000000000000000000000000000000000000000811660248301527f0000000000000000000000000000000000000000000000000000000000000000811660448301525f9182918291829182917f00000000000000000000000000000000000000000000000000000000000000009091169063f611890490606401608060405180830381865afa158015610ddf573d5f803e3d5ffd5b505050506040513d601f19601f82011682018060405250810190610e0391906110fa565b5f54939992985060ff909316965091945092505050565b805f03610e3a5760405163162908e360e11b815260040160405180910390fd5b5f805460ff191681556040516323b872dd60e01b8152336004820152306024820152604481018390527f00000000000000000000000000000000000000000000000000000000000000006001600160a01b0316906323b872dd906064016020604051808303815f875af1158015610eb3573d5f803e3d5ffd5b505050506040513d601f19601f82011682018060405250810190610ed79190611195565b905080610ef7576040516312171d8360e31b815260040160405180910390fd5b60405163095ea7b360e01b81526001600160a01b037f000000000000000000000000000000000000000000000000000000000000000081166004830152602482018490527f0000000000000000000000000000000000000000000000000000000000000000169063095ea7b3906044016020604051808303815f875af1158015610f83573d5f803e3d5ffd5b505050506040513d601f19601f82011682018060405250810190610fa79190611195565b50604051638b2a4df560e01b81526001600160a01b037f000000000000000000000000000000000000000000000000000000000000000081166004830152602482018490523060448301527f00000000000000000000000000000000000000000000000000000000000000001690638b2a4df5906064015f604051808303815f87803b158015611035575f80fd5b505af1158015611047573d5f803e3d5ffd5b50506040518481523392507fe1fffcc4923d04b559f4d29a8bfc6cda04eb5b0d3c460751c2402c5c5cc9109c915060200160405180910390a25050565b5f60208284031215611094575f80fd5b81356001600160a01b03811681146110aa575f80fd5b9392505050565b5f602082840312156110c1575f80fd5b5035919050565b634e487b7160e01b5f52601160045260245ffd5b5f60ff821660ff81036110f1576110f16110c8565b60010192915050565b5f805f806080858703121561110d575f80fd5b505082516020840151604085015160609095015191969095509092509050565b8082028115828204841417611144576111446110c8565b92915050565b5f8261116457634e487b7160e01b5f52601260045260245ffd5b500490565b5f82515f5b81811015611188576020818601810151858301520161116e565b505f920191825250919050565b5f602082840312156111a5575f80fd5b815180151581146110aa575f80fd5b5f80604083850312156111c5575f80fd5b505080516020909101519092909150565b5f602082840312156111e6575f80fd5b505191905056fea26469706673582212207b1e811b3e0014417e38f9a5ca02cbc933500e8513b6d794046a7627060ad18e64736f6c63430008140033",
  "linkReferences": {},
  "deployedLinkReferences": {},
  "immutableReferences": {
    "98": [
      {
        "length": 32,
        "start": 516
      },
      {
        "length": 32,
        "start": 981
      },
      {
        "length": 32,
        "start": 1319
      },
      {
        "length": 32,
        "start": 1715
      },
      {
        "length": 32,
        "start": 1945
      },
      {
        "length": 32,
        "start": 2278
      },
      {
        "length": 32,
        "start": 2748
      },
      {
        "length": 32,
        "start": 2980
      },
      {
        "length": 32,
        "start": 3176
      },
      {
        "length": 32,
        "start": 3480
      },
      {
        "length": 32,
        "start": 3854
      },
      {
        "length": 32,
        "start": 4084
      }
    ],
    "105": [
      {
        "length": 32,
        "start": 304
      }
    ],
    "109": [
      {
        "length": 32,
        "start": 640
      },
      {
        "length": 32,
        "start": 888
      },
      {
        "length": 32,
        "start": 1219
      },
      {
        "length": 32,
        "start": 1473
      },
      {
        "length": 32,
        "start": 1762
      },
      {
        "length": 32,
        "start": 1892
      },
      {
        "length": 32,
        "start": 2194
      },
      {
        "length": 32,
        "start": 3111
      },
      {
        "length": 32,
        "start": 3390
      },
      {
        "length": 32,
        "start": 3685
      },
      {
        "length": 32,
        "start": 3901
      },
      {
        "length": 32,
        "start": 4031
      }
    ],
    "113": [
      {
        "length": 32,
        "start": 222
      },
      {
        "length": 32,
        "start": 937
      },
      {
        "length": 32,
        "start": 1259
      },
      {
        "length": 32,
        "start": 2234
      },
      {
        "length": 32,
        "start": 2511
      },
      {
        "length": 32,
        "start": 2795
      },
      {
        "length": 32,
        "start": 2925
      },
      {
        "length": 32,
        "start": 3430
      }
    ]
  },
  "inputSourceName": "project/contracts/ReactiveVault.sol",
  "buildInfoId": "solc-0_8_20-c21ddc5210717efa4f497ae05d8620408b202680"
}