{
  "_format": "hh3-artifact-1",
  "contractName": "ShieldBrain",
  "sourceName": "contracts/ShieldBrain.sol",
  "abi": [
    {
      "inputs": [
        {
          "internalType": "address",
          "name": "_vaultContract",
          "type": "address"
        },
        {
          "internalType": "address",
          "name": "_oracleContract",
          "type": "address"
        },
        {
          "internalType": "address",
          "name": "_systemContract",
          "type": "address"
        }
      ],
      "stateMutability": "nonpayable",
      "type": "constructor"
    },
    {
      "anonymous": false,
      "inputs": [
        {
          "indexed": true,
          "internalType": "uint256",
          "name": "chain_id",
          "type": "uint256"
        },
        {
          "indexed": true,
          "internalType": "address",
          "name": "_contract",
          "type": "address"
        },
        {
          "indexed": true,
          "internalType": "uint64",
          "name": "gas_limit",
          "type": "uint64"
        },
        {
          "indexed": false,
          "internalType": "bytes",
          "name": "payload",
          "type": "bytes"
        }
      ],
      "name": "Callback",
      "type": "event"
    },
    {
      "anonymous": false,
      "inputs": [
        {
          "indexed": true,
          "internalType": "address",
          "name": "user",
          "type": "address"
        },
        {
          "indexed": false,
          "internalType": "uint8",
          "name": "iteration",
          "type": "uint8"
        }
      ],
      "name": "LoopTriggered",
      "type": "event"
    },
    {
      "anonymous": false,
      "inputs": [
        {
          "indexed": false,
          "internalType": "uint8",
          "name": "finalIteration",
          "type": "uint8"
        }
      ],
      "name": "MaxIterationsReached",
      "type": "event"
    },
    {
      "anonymous": false,
      "inputs": [
        {
          "indexed": false,
          "internalType": "uint256",
          "name": "price",
          "type": "uint256"
        },
        {
          "indexed": false,
          "internalType": "uint256",
          "name": "timestamp",
          "type": "uint256"
        }
      ],
      "name": "UnwindTriggered",
      "type": "event"
    },
    {
      "inputs": [],
      "name": "CALLBACK_GAS_LIMIT",
      "outputs": [
        {
          "internalType": "uint64",
          "name": "",
          "type": "uint64"
        }
      ],
      "stateMutability": "view",
      "type": "function"
    },
    {
      "inputs": [],
      "name": "CRASH_PRICE_THRESHOLD",
      "outputs": [
        {
          "internalType": "uint256",
          "name": "",
          "type": "uint256"
        }
      ],
      "stateMutability": "view",
      "type": "function"
    },
    {
      "inputs": [],
      "name": "DEST_CHAIN_ID",
      "outputs": [
        {
          "internalType": "uint256",
          "name": "",
          "type": "uint256"
        }
      ],
      "stateMutability": "view",
      "type": "function"
    },
    {
      "inputs": [],
      "name": "MAX_LOOP_ITERATIONS",
      "outputs": [
        {
          "internalType": "uint8",
          "name": "",
          "type": "uint8"
        }
      ],
      "stateMutability": "view",
      "type": "function"
    },
    {
      "inputs": [],
      "name": "ORIGIN_CHAIN_ID",
      "outputs": [
        {
          "internalType": "uint256",
          "name": "",
          "type": "uint256"
        }
      ],
      "stateMutability": "view",
      "type": "function"
    },
    {
      "inputs": [],
      "name": "SYSTEM_CONTRACT",
      "outputs": [
        {
          "internalType": "address",
          "name": "",
          "type": "address"
        }
      ],
      "stateMutability": "view",
      "type": "function"
    },
    {
      "inputs": [],
      "name": "TOPIC_DEPOSIT",
      "outputs": [
        {
          "internalType": "uint256",
          "name": "",
          "type": "uint256"
        }
      ],
      "stateMutability": "view",
      "type": "function"
    },
    {
      "inputs": [],
      "name": "TOPIC_LOOP_STEP",
      "outputs": [
        {
          "internalType": "uint256",
          "name": "",
          "type": "uint256"
        }
      ],
      "stateMutability": "view",
      "type": "function"
    },
    {
      "inputs": [],
      "name": "TOPIC_PRICE_UPDATED",
      "outputs": [
        {
          "internalType": "uint256",
          "name": "",
          "type": "uint256"
        }
      ],
      "stateMutability": "view",
      "type": "function"
    },
    {
      "inputs": [],
      "name": "oracleContract",
      "outputs": [
        {
          "internalType": "address",
          "name": "",
          "type": "address"
        }
      ],
      "stateMutability": "view",
      "type": "function"
    },
    {
      "inputs": [],
      "name": "pay",
      "outputs": [],
      "stateMutability": "payable",
      "type": "function"
    },
    {
      "inputs": [
        {
          "components": [
            {
              "internalType": "uint256",
              "name": "chain_id",
              "type": "uint256"
            },
            {
              "internalType": "address",
              "name": "_contract",
              "type": "address"
            },
            {
              "internalType": "uint256",
              "name": "topic_0",
              "type": "uint256"
            },
            {
              "internalType": "uint256",
              "name": "topic_1",
              "type": "uint256"
            },
            {
              "internalType": "uint256",
              "name": "topic_2",
              "type": "uint256"
            },
            {
              "internalType": "uint256",
              "name": "topic_3",
              "type": "uint256"
            },
            {
              "internalType": "bytes",
              "name": "data",
              "type": "bytes"
            },
            {
              "internalType": "uint256",
              "name": "block_number",
              "type": "uint256"
            },
            {
              "internalType": "uint256",
              "name": "op_code",
              "type": "uint256"
            },
            {
              "internalType": "uint256",
              "name": "block_hash",
              "type": "uint256"
            },
            {
              "internalType": "uint256",
              "name": "tx_hash",
              "type": "uint256"
            },
            {
              "internalType": "uint256",
              "name": "log_index",
              "type": "uint256"
            }
          ],
          "internalType": "struct IReactive.LogRecord",
          "name": "log",
          "type": "tuple"
        }
      ],
      "name": "react",
      "outputs": [],
      "stateMutability": "nonpayable",
      "type": "function"
    },
    {
      "inputs": [],
      "name": "systemContract",
      "outputs": [
        {
          "internalType": "address",
          "name": "",
          "type": "address"
        }
      ],
      "stateMutability": "view",
      "type": "function"
    },
    {
      "inputs": [],
      "name": "vaultContract",
      "outputs": [
        {
          "internalType": "address",
          "name": "",
          "type": "address"
        }
      ],
      "stateMutability": "view",
      "type": "function"
    },
    {
      "stateMutability": "payable",
      "type": "receive"
    }
  ],
  "bytecode": "0x60e060405234801561000f575f80fd5b50604051610dfd380380610dfd83398101604081905261002e91610289565b6001600160a01b0383811660805282811660a052811660c0525f805460ff191662ffffff3b1590811790915560ff166102665760c0516080516040516305a6aced60e41b815262aa36a760048201526001600160a01b0391821660248201527fe1fffcc4923d04b559f4d29a8bfc6cda04eb5b0d3c460751c2402c5c5cc9109c60448201525f80516020610ddd833981519152606482018190526084820181905260a4820152911690635a6aced09060c4015f604051808303815f87803b1580156100f7575f80fd5b505af1158015610109573d5f803e3d5ffd5b505060c0516080516040516305a6aced60e41b815262aa36a760048201526001600160a01b0391821660248201527f1feb22739013b7d7906e656b39e3e8f16b1018f542fea34cf243fa4994825e6a60448201525f80516020610ddd833981519152606482018190526084820181905260a482015291169250635a6aced0915060c4015f604051808303815f87803b1580156101a3575f80fd5b505af11580156101b5573d5f803e3d5ffd5b505060c05160a0516040516305a6aced60e41b815262aa36a760048201526001600160a01b0391821660248201527f945c1c4e99aa89f648fbfe3df471b916f719e16d960fcec0737d4d56bd69683860448201525f80516020610ddd833981519152606482018190526084820181905260a482015291169250635a6aced0915060c4015f604051808303815f87803b15801561024f575f80fd5b505af1158015610261573d5f803e3d5ffd5b505050505b5050506102c9565b80516001600160a01b0381168114610284575f80fd5b919050565b5f805f6060848603121561029b575f80fd5b6102a48461026e565b92506102b26020850161026e565b91506102c06040850161026e565b90509250925092565b60805160a05160c051610ac76103165f395f61028f01525f81816102e801526106ca01525f81816101420152818161049b015281816105760152818161081801526108c20152610ac75ff3fe6080604052600436106100dc575f3560e01c80637573ca921161007c578063bb88b76911610057578063bb88b7691461027e578063bbdddefe146102b1578063bece7532146102d7578063fd342df714610108575f80fd5b80637573ca9214610202578063aed7490f14610218578063afb1acf91461024b575f80fd5b80632274346b116100b75780632274346b1461013157806333d608f11461017c578063526ff660146101ab5780635f85e676146101de575f80fd5b80630d152c2c146100e75780630dd85b00146101085780631b9265b814610106575f80fd5b366100e357005b5f80fd5b3480156100f2575f80fd5b50610106610101366004610915565b61030a565b005b348015610113575f80fd5b5061011e62aa36a781565b6040519081526020015b60405180910390f35b34801561013c575f80fd5b506101647f000000000000000000000000000000000000000000000000000000000000000081565b6040516001600160a01b039091168152602001610128565b348015610187575f80fd5b50610192620f424081565b60405167ffffffffffffffff9091168152602001610128565b3480156101b6575f80fd5b5061011e7f1feb22739013b7d7906e656b39e3e8f16b1018f542fea34cf243fa4994825e6a81565b3480156101e9575f80fd5b5061011e7005e0a1fd2712875988becaad000000000081565b34801561020d575f80fd5b5061016462ffffff81565b348015610223575f80fd5b5061011e7fe1fffcc4923d04b559f4d29a8bfc6cda04eb5b0d3c460751c2402c5c5cc9109c81565b348015610256575f80fd5b5061011e7f945c1c4e99aa89f648fbfe3df471b916f719e16d960fcec0737d4d56bd69683881565b348015610289575f80fd5b506101647f000000000000000000000000000000000000000000000000000000000000000081565b3480156102bc575f80fd5b506102c5600581565b60405160ff9091168152602001610128565b3480156102e2575f80fd5b506101647f000000000000000000000000000000000000000000000000000000000000000081565b5f5460ff166103575760405162461bcd60e51b8152602060048201526014602482015273536869656c64427261696e3a20564d206f6e6c7960601b60448201526064015b60405180910390fd5b803562aa36a7146103aa5760405162461bcd60e51b815260206004820152601860248201527f536869656c64427261696e3a2077726f6e6720636861696e0000000000000000604482015260640161034e565b7f1e00033b6dc2fb4aa60b2d6574039325fb14a4f2c3b9f8ae3dbfd3a3a336ef646040820135016103e1576103de81610491565b50565b7fe014dd8c6fec48286f919a94c61c170e94efe70abd015cb30dbc05b66b7da196604082013501610415576103de8161056c565b7f6ba3e3b166557609b70401c20b8e46e908e61e9269f0313f8c82b2a9429697c8604082013501610449576103de816106c0565b60405162461bcd60e51b815260206004820152601a60248201527f536869656c64427261696e3a20756e6b6e6f776e206576656e74000000000000604482015260640161034e565b6001600160a01b037f0000000000000000000000000000000000000000000000000000000000000000166104cb6040830160208401610954565b6001600160a01b03161461051c5760405162461bcd60e51b815260206004820152601860248201527714da1a595b19109c985a5b8e881ddc9bdb99c81d985d5b1d60421b604482015260640161034e565b60608101356105296107cc565b604051600181526001600160a01b038216907f85ceb909508e7b859716c6435e4c521500f238f5d34753c64a89c6a424cee69a9060200160405180910390a25050565b6001600160a01b037f0000000000000000000000000000000000000000000000000000000000000000166105a66040830160208401610954565b6001600160a01b0316146105f75760405162461bcd60e51b815260206004820152601860248201527714da1a595b19109c985a5b8e881ddc9bdb99c81d985d5b1d60421b604482015260640161034e565b5f8061060660c084018461097a565b81019061061391906109c4565b509092509050600560ff8316106106605760405160ff831681527ff8aa6db164e0df5dcc45d901b6a6de48e0b6c5487e348cf6e443c991fe1bcca2906020015b60405180910390a1505050565b6305f5e10081101561067157505050565b6106796107cc565b5f7f85ceb909508e7b859716c6435e4c521500f238f5d34753c64a89c6a424cee69a6106a68460016109fb565b60405160ff909116815260200160405180910390a2505050565b6001600160a01b037f0000000000000000000000000000000000000000000000000000000000000000166106fa6040830160208401610954565b6001600160a01b0316146107505760405162461bcd60e51b815260206004820152601960248201527f536869656c64427261696e3a2077726f6e67206f7261636c6500000000000000604482015260640161034e565b5f8061075f60c084018461097a565b81019061076c9190610a26565b915091507005e0a1fd2712875988becaad00000000008210156107c757610791610876565b60408051838152602081018390527fc16e58b2fba1ddc4491f28bc527b11cb08ae04f61f0a43d2b6c78ec763bf12b39101610653565b505050565b6040515f602482018190529060440160408051601f198184030181529181526020820180516001600160e01b0316630df2123760e21b17905251909150620f4240906001600160a01b037f0000000000000000000000000000000000000000000000000000000000000000169062aa36a7907f8dd725fa9d6cd150017ab9e60318d40616439424e2fade9c1c58854950917dfc9061086b908690610a46565b60405180910390a450565b6040515f602482018190529060440160408051601f198184030181529181526020820180516001600160e01b0316634aba005b60e01b17905251909150620f4240906001600160a01b037f0000000000000000000000000000000000000000000000000000000000000000169062aa36a7907f8dd725fa9d6cd150017ab9e60318d40616439424e2fade9c1c58854950917dfc9061086b908690610a46565b5f60208284031215610925575f80fd5b813567ffffffffffffffff81111561093b575f80fd5b8201610180818503121561094d575f80fd5b9392505050565b5f60208284031215610964575f80fd5b81356001600160a01b038116811461094d575f80fd5b5f808335601e1984360301811261098f575f80fd5b83018035915067ffffffffffffffff8211156109a9575f80fd5b6020019150368190038213156109bd575f80fd5b9250929050565b5f805f606084860312156109d6575f80fd5b833560ff811681146109e6575f80fd5b95602085013595506040909401359392505050565b60ff8181168382160190811115610a2057634e487b7160e01b5f52601160045260245ffd5b92915050565b5f8060408385031215610a37575f80fd5b50508035926020909101359150565b5f6020808352835180828501525f5b81811015610a7157858101830151858201604001528201610a55565b505f604082860101526040601f19601f830116850101925050509291505056fea264697066735822122029cb3c566602cb8329a2961a25a0be67d7e648c4004b5129a71454f9bb5e3d0964736f6c63430008140033a65f96fc951c35ead38878e0f0b7a3c744a6f5ccc1476b313353ce31712313ad",
  "linkReferences": {},
  "deployedLinkReferences": {},
  "immutableReferences": {
    "99": [
      {
        "length": 32,
        "start": 322
      },
      {
        "length": 32,
        "start": 1179
      },
      {
        "length": 32,
        "start": 1398
      },
      {
        "length": 32,
        "start": 2072
      },
      {
        "length": 32,
        "start": 2242
      }
    ],
    "101": [
      {
        "length": 32,
        "start": 744
      },
      {
        "length": 32,
        "start": 1738
      }
    ],
    "103": [
      {
        "length": 32,
        "start": 655
      }
    ]
  },
  "inputSourceName": "project/contracts/ShieldBrain.sol",
  "buildInfoId": "solc-0_8_20-b1d199ac5de4865acfb46a6b0eb193fd7ac71a0d"
}